{
  "_format": "hh-sol-artifact-1",
  "contractName": "FlashbotsTrader",
  "sourceName": "contracts/FlashbotsTrader.sol",
  "abi": [
    {
      "inputs": [
        {
          "internalType": "address",
          "name": "_WETHAddress",
          "type": "address"
        }
      ],
      "stateMutability": "payable",
      "type": "constructor"
    },
    {
      "stateMutability": "nonpayable",
      "type": "fallback"
    },
    {
      "inputs": [
        {
          "internalType": "uint256",
          "name": "amount",
          "type": "uint256"
        }
      ],
      "name": "convertETHtoWETH",
      "outputs": [],
      "stateMutability": "nonpayable",
      "type": "function"
    },
    {
      "inputs": [
        {
          "internalType": "uint256",
          "name": "poolAddressWithData",
          "type": "uint256"
        },
        {
          "internalType": "uint256",
          "name": "amounts",
          "type": "uint256"
        },
        {
          "internalType": "address",
          "name": "from",
          "type": "address"
        },
        {
          "internalType": "uint256",
          "name": "inputAmount",
          "type": "uint256"
        }
      ],
      "name": "executeTrade",
      "outputs": [],
      "stateMutability": "payable",
      "type": "function"
    },
    {
      "inputs": [],
      "name": "kill",
      "outputs": [],
      "stateMutability": "nonpayable",
      "type": "function"
    },
    {
      "inputs": [
        {
          "internalType": "uint256",
          "name": "amount",
          "type": "uint256"
        }
      ],
      "name": "withdrawETH",
      "outputs": [],
      "stateMutability": "nonpayable",
      "type": "function"
    },
    {
      "inputs": [
        {
          "internalType": "address",
          "name": "token",
          "type": "address"
        }
      ],
      "name": "withdrawToken",
      "outputs": [],
      "stateMutability": "nonpayable",
      "type": "function"
    },
    {
      "stateMutability": "payable",
      "type": "receive"
    }
  ],
  "bytecode": "0x60c060405260405162001a1f38038062001a1f8339818101604052810190620000299190620000b5565b3373ffffffffffffffffffffffffffffffffffffffff1660808173ffffffffffffffffffffffffffffffffffffffff1660601b815250508073ffffffffffffffffffffffffffffffffffffffff1660a08173ffffffffffffffffffffffffffffffffffffffff1660601b81525050506200013a565b600081519050620000af8162000120565b92915050565b600060208284031215620000ce57620000cd6200011b565b5b6000620000de848285016200009e565b91505092915050565b6000620000f482620000fb565b9050919050565b600073ffffffffffffffffffffffffffffffffffffffff82169050919050565b600080fd5b6200012b81620000e7565b81146200013757600080fd5b50565b60805160601c60a05160601c611865620001ba600039600081816101e8015281816102fc01528181610c340152610dd701526000818161015a0152818161026c015281816104210152818161045a015281816105930152818161069f01528181610d3a01528181610f0f01528181610fe6015261106001526118656000f3fe60806040526004361061004e5760003560e01c80632de9800a146100aa57806341c0e1b5146100d357806389476069146100ea578063cec4347714610113578063f14210a61461012f57610055565b3661005557005b34801561006157600080fd5b50600080369050146100a8576040517f08c379a000000000000000000000000000000000000000000000000000000000815260040161009f90611454565b60405180910390fd5b005b3480156100b657600080fd5b506100d160048036038101906100cc9190611136565b610158565b005b3480156100df57600080fd5b506100e861026a565b005b3480156100f657600080fd5b50610111600480360381019061010c9190611109565b610458565b005b61012d60048036038101906101289190611190565b61069d565b005b34801561013b57600080fd5b5061015660048036038101906101519190611136565b610d38565b005b7f000000000000000000000000000000000000000000000000000000000000000073ffffffffffffffffffffffffffffffffffffffff163373ffffffffffffffffffffffffffffffffffffffff16146101e6576040517f08c379a00000000000000000000000000000000000000000000000000000000081526004016101dd906114d4565b60405180910390fd5b7f000000000000000000000000000000000000000000000000000000000000000073ffffffffffffffffffffffffffffffffffffffff1663d0e30db0826040518263ffffffff1660e01b81526004016000604051808303818588803b15801561024e57600080fd5b505af1158015610262573d6000803e3d6000fd5b505050505050565b7f000000000000000000000000000000000000000000000000000000000000000073ffffffffffffffffffffffffffffffffffffffff163373ffffffffffffffffffffffffffffffffffffffff16146102f8576040517f08c379a00000000000000000000000000000000000000000000000000000000081526004016102ef906114d4565b60405180910390fd5b60007f0000000000000000000000000000000000000000000000000000000000000000905060008173ffffffffffffffffffffffffffffffffffffffff166370a08231306040518263ffffffff1660e01b8152600401610358919061139b565b60206040518083038186803b15801561037057600080fd5b505afa158015610384573d6000803e3d6000fd5b505050506040513d601f19601f820116820180604052508101906103a89190611163565b9050600081111561041f578173ffffffffffffffffffffffffffffffffffffffff16632e1a7d4d826040518263ffffffff1660e01b81526004016103ec91906114f4565b600060405180830381600087803b15801561040657600080fd5b505af115801561041a573d6000803e3d6000fd5b505050505b7f000000000000000000000000000000000000000000000000000000000000000073ffffffffffffffffffffffffffffffffffffffff16ff5b7f000000000000000000000000000000000000000000000000000000000000000073ffffffffffffffffffffffffffffffffffffffff163373ffffffffffffffffffffffffffffffffffffffff16146104e6576040517f08c379a00000000000000000000000000000000000000000000000000000000081526004016104dd906114d4565b60405180910390fd5b60008173ffffffffffffffffffffffffffffffffffffffff166370a08231306040518263ffffffff1660e01b8152600401610521919061139b565b60206040518083038186803b15801561053957600080fd5b505afa15801561054d573d6000803e3d6000fd5b505050506040513d601f19601f820116820180604052508101906105719190611163565b905060008273ffffffffffffffffffffffffffffffffffffffff1663a9059cbb7f0000000000000000000000000000000000000000000000000000000000000000846040516024016105c49291906113b6565b6040516020818303038152906040529060e01b6020820180517bffffffffffffffffffffffffffffffffffffffffffffffffffffffff8381831617835250505050604051610612919061136f565b6000604051808303816000865af19150503d806000811461064f576040519150601f19603f3d011682016040523d82523d6000602084013e610654565b606091505b5050905080610698576040517f08c379a000000000000000000000000000000000000000000000000000000000815260040161068f90611494565b60405180910390fd5b505050565b7f000000000000000000000000000000000000000000000000000000000000000073ffffffffffffffffffffffffffffffffffffffff163373ffffffffffffffffffffffffffffffffffffffff161461072b576040517f08c379a0000000000000000000000000000000000000000000000000000000008152600401610722906114d4565b60405180910390fd5b600060a885901c9050804314806107425750600081145b610781576040517f08c379a000000000000000000000000000000000000000000000000000000000815260040161077890611474565b60405180910390fd5b6000600160a074ffffffffffffffffffffffffffffffffffffffffff8816901c146107ad5760006107b0565b60015b9050600073ffffffffffffffffffffffffffffffffffffffff871690506000608087901c905060006fffffffffffffffffffffffffffffffff8816905060008773ffffffffffffffffffffffffffffffffffffffff1663a9059cbb858960405160240161081e9291906113df565b6040516020818303038152906040529060e01b6020820180517bffffffffffffffffffffffffffffffffffffffffffffffffffffffff838183161783525050505060405161086c919061136f565b6000604051808303816000865af19150503d80600081146108a9576040519150601f19603f3d011682016040523d82523d6000602084013e6108ae565b606091505b50509050806108f2576040517f08c379a00000000000000000000000000000000000000000000000000000000081526004016108e990611494565b60405180910390fd5b8415610a555760008473ffffffffffffffffffffffffffffffffffffffff1663022c0d9f60008630600067ffffffffffffffff811115610935576109346116ec565b5b6040519080825280601f01601f1916602001820160405280156109675781602001600182028036833780820191505090505b5060405160240161097b9493929190611408565b6040516020818303038152906040529060e01b6020820180517bffffffffffffffffffffffffffffffffffffffffffffffffffffffff83818316178352505050506040516109c9919061136f565b6000604051808303816000865af19150503d8060008114610a06576040519150601f19603f3d011682016040523d82523d6000602084013e610a0b565b606091505b5050905080610a4f576040517f08c379a0000000000000000000000000000000000000000000000000000000008152600401610a46906114b4565b60405180910390fd5b50610bae565b60008473ffffffffffffffffffffffffffffffffffffffff1663022c0d9f85600030600067ffffffffffffffff811115610a9257610a916116ec565b5b6040519080825280601f01601f191660200182016040528015610ac45781602001600182028036833780820191505090505b50604051602401610ad8949392919061150f565b6040516020818303038152906040529060e01b6020820180517bffffffffffffffffffffffffffffffffffffffffffffffffffffffff8381831617835250505050604051610b26919061136f565b6000604051808303816000865af19150503d8060008114610b63576040519150601f19603f3d011682016040523d82523d6000602084013e610b68565b606091505b5050905080610bac576040517f08c379a0000000000000000000000000000000000000000000000000000000008152600401610ba3906114b4565b60405180910390fd5b505b6000341115610c29574173ffffffffffffffffffffffffffffffffffffffff166161a834604051610bde90611386565b600060405180830381858888f193505050503d8060008114610c1c576040519150601f19603f3d011682016040523d82523d6000602084013e610c21565b606091505b505050610d2c565b6000821115610d2b577f000000000000000000000000000000000000000000000000000000000000000073ffffffffffffffffffffffffffffffffffffffff16632e1a7d4d836040518263ffffffff1660e01b8152600401610c8b91906114f4565b600060405180830381600087803b158015610ca557600080fd5b505af1158015610cb9573d6000803e3d6000fd5b505050504173ffffffffffffffffffffffffffffffffffffffff166161a883604051610ce490611386565b600060405180830381858888f193505050503d8060008114610d22576040519150601f19603f3d011682016040523d82523d6000602084013e610d27565b606091505b5050505b5b50505050505050505050565b7f000000000000000000000000000000000000000000000000000000000000000073ffffffffffffffffffffffffffffffffffffffff163373ffffffffffffffffffffffffffffffffffffffff1614610dc6576040517f08c379a0000000000000000000000000000000000000000000000000000000008152600401610dbd906114d4565b60405180910390fd5b60004790508082111561105e5760007f0000000000000000000000000000000000000000000000000000000000000000905060008173ffffffffffffffffffffffffffffffffffffffff166370a08231306040518263ffffffff1660e01b8152600401610e33919061139b565b60206040518083038186803b158015610e4b57600080fd5b505afa158015610e5f573d6000803e3d6000fd5b505050506040513d601f19601f82011682018060405250810190610e839190611163565b9050838382610e929190611593565b10610f79578173ffffffffffffffffffffffffffffffffffffffff16632e1a7d4d8486610ebf91906115e9565b6040518263ffffffff1660e01b8152600401610edb91906114f4565b600060405180830381600087803b158015610ef557600080fd5b505af1158015610f09573d6000803e3d6000fd5b505050507f000000000000000000000000000000000000000000000000000000000000000073ffffffffffffffffffffffffffffffffffffffff166108fc859081150290604051600060405180830381858888f19350505050158015610f73573d6000803e3d6000fd5b50611057565b8173ffffffffffffffffffffffffffffffffffffffff16632e1a7d4d826040518263ffffffff1660e01b8152600401610fb291906114f4565b600060405180830381600087803b158015610fcc57600080fd5b505af1158015610fe0573d6000803e3d6000fd5b505050507f000000000000000000000000000000000000000000000000000000000000000073ffffffffffffffffffffffffffffffffffffffff166108fc828561102a9190611593565b9081150290604051600060405180830381858888f19350505050158015611055573d6000803e3d6000fd5b505b50506110c6565b7f000000000000000000000000000000000000000000000000000000000000000073ffffffffffffffffffffffffffffffffffffffff166108fc839081150290604051600060405180830381858888f193505050501580156110c4573d6000803e3d6000fd5b505b5050565b6000813590506110d981611801565b92915050565b6000813590506110ee81611818565b92915050565b60008151905061110381611818565b92915050565b60006020828403121561111f5761111e61171b565b5b600061112d848285016110ca565b91505092915050565b60006020828403121561114c5761114b61171b565b5b600061115a848285016110df565b91505092915050565b6000602082840312156111795761117861171b565b5b6000611187848285016110f4565b91505092915050565b600080600080608085870312156111aa576111a961171b565b5b60006111b8878288016110df565b94505060206111c9878288016110df565b93505060406111da878288016110ca565b92505060606111eb878288016110df565b91505092959194509250565b6112008161162f565b82525050565b61120f8161161d565b82525050565b60006112208261155b565b61122a8185611566565b935061123a81856020860161168a565b61124381611720565b840191505092915050565b60006112598261155b565b6112638185611577565b935061127381856020860161168a565b80840191505092915050565b61128881611678565b82525050565b600061129b601283611582565b91506112a682611731565b602082019050919050565b60006112be600e83611582565b91506112c98261175a565b602082019050919050565b60006112e1600f83611582565b91506112ec82611783565b602082019050919050565b6000611304600b83611582565b915061130f826117ac565b602082019050919050565b6000611327600083611577565b9150611332826117d5565b600082019050919050565b600061134a600a83611582565b9150611355826117d8565b602082019050919050565b61136981611661565b82525050565b600061137b828461124e565b915081905092915050565b60006113918261131a565b9150819050919050565b60006020820190506113b06000830184611206565b92915050565b60006040820190506113cb60008301856111f7565b6113d86020830184611360565b9392505050565b60006040820190506113f46000830185611206565b6114016020830184611360565b9392505050565b600060808201905061141d600083018761127f565b61142a6020830186611360565b6114376040830185611206565b81810360608301526114498184611215565b905095945050505050565b6000602082019050818103600083015261146d8161128e565b9050919050565b6000602082019050818103600083015261148d816112b1565b9050919050565b600060208201905081810360008301526114ad816112d4565b9050919050565b600060208201905081810360008301526114cd816112f7565b9050919050565b600060208201905081810360008301526114ed8161133d565b9050919050565b60006020820190506115096000830184611360565b92915050565b60006080820190506115246000830187611360565b611531602083018661127f565b61153e6040830185611206565b81810360608301526115508184611215565b905095945050505050565b600081519050919050565b600082825260208201905092915050565b600081905092915050565b600082825260208201905092915050565b600061159e82611661565b91506115a983611661565b9250827fffffffffffffffffffffffffffffffffffffffffffffffffffffffffffffffff038211156115de576115dd6116bd565b5b828201905092915050565b60006115f482611661565b91506115ff83611661565b925082821015611612576116116116bd565b5b828203905092915050565b600061162882611641565b9050919050565b600061163a82611641565b9050919050565b600073ffffffffffffffffffffffffffffffffffffffff82169050919050565b6000819050919050565b600060ff82169050919050565b60006116838261166b565b9050919050565b60005b838110156116a857808201518184015260208101905061168d565b838111156116b7576000848401525b50505050565b7f4e487b7100000000000000000000000000000000000000000000000000000000600052601160045260246000fd5b7f4e487b7100000000000000000000000000000000000000000000000000000000600052604160045260246000fd5b600080fd5b6000601f19601f8301169050919050565b7f46414c4c4241434b5f5452494747455245440000000000000000000000000000600082015250565b7f57524f4e475f424c4f434b5f4e4f000000000000000000000000000000000000600082015250565b7f5452414e534645525f4641494c45440000000000000000000000000000000000600082015250565b7f535741505f4641494c4544000000000000000000000000000000000000000000600082015250565b50565b7f4f4e4c595f4f574e455200000000000000000000000000000000000000000000600082015250565b61180a8161161d565b811461181557600080fd5b50565b61182181611661565b811461182c57600080fd5b5056fea2646970667358221220531168bf49a756c6a35acca88d3506f57f40c638f4cda51ffe42d5e3fae5f04664736f6c63430008070033",
  "linkReferences": {},
  "deployedLinkReferences": {}
}