{
  "_format": "hh-sol-artifact-1",
  "contractName": "FlashbotsTrader",
  "sourceName": "contracts/FlashbotsTrader.sol",
  "abi": [
    {
      "inputs": [
        {
          "internalType": "address",
          "name": "_WETHAddress",
          "type": "address"
        }
      ],
      "stateMutability": "payable",
      "type": "constructor"
    },
    {
      "stateMutability": "nonpayable",
      "type": "fallback"
    },
    {
      "inputs": [
        {
          "internalType": "uint256",
          "name": "amount",
          "type": "uint256"
        }
      ],
      "name": "convertETHtoWETH",
      "outputs": [],
      "stateMutability": "nonpayable",
      "type": "function"
    },
    {
      "inputs": [
        {
          "internalType": "uint256",
          "name": "poolAddressWithData",
          "type": "uint256"
        },
        {
          "internalType": "uint256",
          "name": "amounts",
          "type": "uint256"
        },
        {
          "internalType": "address",
          "name": "from",
          "type": "address"
        },
        {
          "internalType": "uint256",
          "name": "inputAmount",
          "type": "uint256"
        }
      ],
      "name": "executeTrade",
      "outputs": [],
      "stateMutability": "payable",
      "type": "function"
    },
    {
      "inputs": [],
      "name": "kill",
      "outputs": [],
      "stateMutability": "nonpayable",
      "type": "function"
    },
    {
      "inputs": [
        {
          "internalType": "uint256",
          "name": "amount",
          "type": "uint256"
        }
      ],
      "name": "withdrawETH",
      "outputs": [],
      "stateMutability": "nonpayable",
      "type": "function"
    },
    {
      "inputs": [
        {
          "internalType": "address",
          "name": "token",
          "type": "address"
        }
      ],
      "name": "withdrawToken",
      "outputs": [],
      "stateMutability": "nonpayable",
      "type": "function"
    },
    {
      "stateMutability": "payable",
      "type": "receive"
    }
  ],
  "bytecode": "0x60c0604052604051610ffa380380610ffa8339810160408190526100229161003e565b33606090811b6080521b6001600160601b03191660a05261006e565b60006020828403121561005057600080fd5b81516001600160a01b038116811461006757600080fd5b9392505050565b60805160601c60a05160601c610f0d6100ed6000396000818161017e01528181610250015281816109450152610a6901526000818161013f015281816101fe0152818161033c015281816103710152818161042e0152818161053b01528181610a0e01528181610b7601528181610c230152610c970152610f0d6000f3fe60806040526004361061004e5760003560e01c80632de9800a146100ac57806341c0e1b5146100cc57806389476069146100e1578063cec4347714610101578063f14210a61461011457610055565b3661005557005b34801561006157600080fd5b5036156100aa5760405162461bcd60e51b815260206004820152601260248201527111905313109050d2d7d5149251d1d154915160721b60448201526064015b60405180910390fd5b005b3480156100b857600080fd5b506100aa6100c7366004610d1e565b610134565b3480156100d857600080fd5b506100aa6101f3565b3480156100ed57600080fd5b506100aa6100fc366004610cfc565b610366565b6100aa61010f366004610d50565b610530565b34801561012057600080fd5b506100aa61012f366004610d1e565b610a03565b336001600160a01b037f0000000000000000000000000000000000000000000000000000000000000000161461017c5760405162461bcd60e51b81526004016100a190610e0f565b7f00000000000000000000000000000000000000000000000000000000000000006001600160a01b031663d0e30db0826040518263ffffffff1660e01b81526004016000604051808303818588803b1580156101d757600080fd5b505af11580156101eb573d6000803e3d6000fd5b505050505050565b336001600160a01b037f0000000000000000000000000000000000000000000000000000000000000000161461023b5760405162461bcd60e51b81526004016100a190610e0f565b6040516370a0823160e01b81523060048201527f0000000000000000000000000000000000000000000000000000000000000000906000906001600160a01b038316906370a082319060240160206040518083038186803b15801561029f57600080fd5b505afa1580156102b3573d6000803e3d6000fd5b505050506040513d601f19601f820116820180604052508101906102d79190610d37565b9050801561033a57604051632e1a7d4d60e01b8152600481018290526001600160a01b03831690632e1a7d4d90602401600060405180830381600087803b15801561032157600080fd5b505af1158015610335573d6000803e3d6000fd5b505050505b7f00000000000000000000000000000000000000000000000000000000000000006001600160a01b0316ff5b336001600160a01b037f000000000000000000000000000000000000000000000000000000000000000016146103ae5760405162461bcd60e51b81526004016100a190610e0f565b6040516370a0823160e01b81523060048201526000906001600160a01b038316906370a082319060240160206040518083038186803b1580156103f057600080fd5b505afa158015610404573d6000803e3d6000fd5b505050506040513d601f19601f820116820180604052508101906104289190610d37565b604080517f00000000000000000000000000000000000000000000000000000000000000006001600160a01b039081166024830152604480830185905283518084039091018152606490920183526020820180516001600160e01b031663a9059cbb60e01b1790529151929350600092918516916104a69190610db9565b6000604051808303816000865af19150503d80600081146104e3576040519150601f19603f3d011682016040523d82523d6000602084013e6104e8565b606091505b505090508061052b5760405162461bcd60e51b815260206004820152600f60248201526e1514905394d1915497d19052531151608a1b60448201526064016100a1565b505050565b336001600160a01b037f000000000000000000000000000000000000000000000000000000000000000016146105785760405162461bcd60e51b81526004016100a190610e0f565b60a884901c43811480610589575080155b6105c65760405162461bcd60e51b815260206004820152600e60248201526d57524f4e475f424c4f434b5f4e4f60901b60448201526064016100a1565b600060a0866001600160a81b0316901c6001146105e45760006105e7565b60015b604080516001600160a01b0389811660248301819052604480840189905284518085039091018152606490930184526020830180516001600160e01b031663a9059cbb60e01b17905292519394509192608089901c926fffffffffffffffffffffffffffffffff8a1692600092918a16916106629190610db9565b6000604051808303816000865af19150503d806000811461069f576040519150601f19603f3d011682016040523d82523d6000602084013e6106a4565b606091505b50509050806106e75760405162461bcd60e51b815260206004820152600f60248201526e1514905394d1915497d19052531151608a1b60448201526064016100a1565b84156107e157604080516000808252602082019092526001600160a01b0386169063022c0d9f906107219084908890309060448101610dd5565b6040516020818303038152906040529060e01b6020820180516001600160e01b03838183161783525050505060405161075a9190610db9565b6000604051808303816000865af19150503d8060008114610797576040519150601f19603f3d011682016040523d82523d6000602084013e61079c565b606091505b50509050806107db5760405162461bcd60e51b815260206004820152600b60248201526a14d5d05417d1905253115160aa1b60448201526064016100a1565b506108d1565b604080516000808252602082019092526001600160a01b0386169063022c0d9f906108159087908590309060448101610e33565b6040516020818303038152906040529060e01b6020820180516001600160e01b03838183161783525050505060405161084e9190610db9565b6000604051808303816000865af19150503d806000811461088b576040519150601f19603f3d011682016040523d82523d6000602084013e610890565b606091505b50509050806108cf5760405162461bcd60e51b815260206004820152600b60248201526a14d5d05417d1905253115160aa1b60448201526064016100a1565b505b34156109295760405141906161a89034906000818181858888f193505050503d806000811461091c576040519150601f19603f3d011682016040523d82523d6000602084013e610921565b606091505b5050506109f7565b81156109f757604051632e1a7d4d60e01b8152600481018390527f00000000000000000000000000000000000000000000000000000000000000006001600160a01b031690632e1a7d4d90602401600060405180830381600087803b15801561099157600080fd5b505af11580156109a5573d6000803e3d6000fd5b50506040514192506161a8915084906000818181858888f193505050503d80600081146109ee576040519150601f19603f3d011682016040523d82523d6000602084013e6109f3565b606091505b5050505b50505050505050505050565b336001600160a01b037f00000000000000000000000000000000000000000000000000000000000000001614610a4b5760405162461bcd60e51b81526004016100a190610e0f565b4780821115610c8a576040516370a0823160e01b81523060048201527f0000000000000000000000000000000000000000000000000000000000000000906000906001600160a01b038316906370a082319060240160206040518083038186803b158015610ab857600080fd5b505afa158015610acc573d6000803e3d6000fd5b505050506040513d601f19601f82011682018060405250810190610af09190610d37565b905083610afd8483610e66565b10610bc7576001600160a01b038216632e1a7d4d610b1b8587610e7e565b6040518263ffffffff1660e01b8152600401610b3991815260200190565b600060405180830381600087803b158015610b5357600080fd5b505af1158015610b67573d6000803e3d6000fd5b50506040516001600160a01b037f000000000000000000000000000000000000000000000000000000000000000016925086156108fc02915086906000818181858888f19350505050158015610bc1573d6000803e3d6000fd5b50610c84565b604051632e1a7d4d60e01b8152600481018290526001600160a01b03831690632e1a7d4d90602401600060405180830381600087803b158015610c0957600080fd5b505af1158015610c1d573d6000803e3d6000fd5b505050507f00000000000000000000000000000000000000000000000000000000000000006001600160a01b03166108fc8285610c5a9190610e66565b6040518115909202916000818181858888f19350505050158015610c82573d6000803e3d6000fd5b505b50505050565b6040516001600160a01b037f0000000000000000000000000000000000000000000000000000000000000000169083156108fc029084906000818181858888f1935050505015801561052b573d6000803e3d6000fd5b80356001600160a01b0381168114610cf757600080fd5b919050565b600060208284031215610d0e57600080fd5b610d1782610ce0565b9392505050565b600060208284031215610d3057600080fd5b5035919050565b600060208284031215610d4957600080fd5b5051919050565b60008060008060808587031215610d6657600080fd5b8435935060208501359250610d7d60408601610ce0565b9396929550929360600135925050565b60008151808452610da5816020860160208601610e95565b601f01601f19169290920160200192915050565b60008251610dcb818460208701610e95565b9190910192915050565b60ff8516815283602082015260018060a01b0383166040820152608060608201526000610e056080830184610d8d565b9695505050505050565b6020808252600a908201526927a7262cafa7aba722a960b11b604082015260600190565b84815260ff841660208201526001600160a01b0383166040820152608060608201819052600090610e0590830184610d8d565b60008219821115610e7957610e79610ec1565b500190565b600082821015610e9057610e90610ec1565b500390565b60005b83811015610eb0578181015183820152602001610e98565b83811115610c845750506000910152565b634e487b7160e01b600052601160045260246000fdfea2646970667358221220e97a8851ad32222cb511acc2ba06119ed5fe974018dfb7045f574966ae56a06164736f6c63430008070033",
  "linkReferences": {},
  "deployedLinkReferences": {}
}